:020000040000FA
:10000000E8F1FF1F9B010000CD260000CD26000077
:10001000CD260000CD260000CD260000CD26000014
:10002000CD260000CD260000CD260000CD26000004
:10003000CD260000CD260000CD260000CD260000F4
:10004000CD260000CD260000CD260000CD260000E4
:10005000CD260000CD260000CD260000CD260000D4
:10006000410C0000CD260000C1160000CD26000086
:10007000BD1D0000CD260000CD2600005903000064
:10008000CD260000CD260000CD260000CD260000A4
:10009000CD260000CD260000F51400000D1500004F
:1000A000CD260000CD260000CD260000CD26000084
:1000B000CD260000CD260000CD260000CD26000074
:1000C000E8F1FF1F9B010000A7010000A90100004B
:1000D0000000000000000000000000000000000020
:1000E000000000000000000000000000AB01000064
:1000F0000000000000000000AD010000AF010000A2
:10010000B1010000B1010000B1010000B101000027
:10011000B1010000B1010000B1010000B101000017
:10012000B1010000B1010000B1010000B101000007
:10013000B1010000B1010000B1010000B1010000F7
:10014000B1010000B1010000B1010000B1010000E7
:10015000B1010000B1010000B1010000B1010000D7
:10016000B1010000B1010000B1010000B1010000C7
:10017000B1010000B1010000B1010000B1010000B7
:100180000448854600F074F800480047DD2600006A
:10019000C046C046E8F1FF1F704706488047064842
:1001A000804706480047FEE7FEE7FEE7FEE7FEE77A
:1001B000FEE70000651A00009901000081010000BF
:1001C00030B50B46014600202022012409E00D46EF
:1001D000D5409D4205D31D469540491B2546954077
:1001E00040191546521E002DF1DC30BDD2B201E09F
:1001F0000270401C491EFBD270470022F6E710B582
:1002000013460A4604461946FFF7F0FF204610BD84
:10021000F0B51FB40646002082B005464024019187
:1002200000901BE0019922460F46304600F042F84C
:10023000049A059B801A994110D31046194622460C
:1002400000F028F8361A8F4101972246012000213C
:10025000009F00F01FF838184D4100902046641EA2
:100260000028DFDC019B00982946324607B0F0BD2C
:10027000064C0125064E05E0E36807CC2B430C3CF9
:1002800098471034B442F7D3FFF77EFF8027000071
:10029000A027000010B5202A04DB0146203A914037
:1002A000002010BD914020239C1A0346E3401943CF
:1002B000904010BD10B5202A04DB0846203AD040FB
:1002C000002110BD0B46D340D0402024A21A9140FB
:1002D0000843194610BD000070B511480169114C62
:1002E000E279234655002E335E5B521C7118595338
:1002F000D1B2E171012907D10025E571217A491CAC
:10030000C9B22172042905D00749E279895C00F05D
:1003100065F870BD0120A07000F03CF8E57070BD7C
:1003200000B0034020F0FF1F6B27000010B5094903
:10033000897800290CD0074B00212E334A009C5AA3
:10034000491CA40809068452090EF7D0012010BDEB
:10035000022010BD20F0FF1F02480068002800D0D6
:100360000047704704F0FF1F70B5094C0546E07860
:10037000002801D0002070BD00F0D6F80120E07008
:10038000002D02D0E0780128FCD0012070BD0000D3
:1003900020F0FF1F00B50448FFF7C8FF012801D176
:1003A0000249087100BD000084F0FF1F20F0FF1F0C
:1003B0008268890792089200890F11438160704713
:1003C0008268602389079A43490E11438160704710
:1003D000014908607047000004F0FF1F0268C90669
:1003E00052095201C90E114301607047C2684907A2
:1003F000D208D200490F1143C1607047704770475F
:10040000FFFFFFFFFFFFFFFFFFFFFFFFFFFFFEFEFE
:1004100030B504463C480D46844204D13B4841690E
:1004200082031143416129792046FFF7C1FF6979B1
:100430002046FFF7C5FFA979204600F06DF8E9795D
:100440002046FFF7D3FF6888A061287801072020A5
:10045000002902DA6168014361602978CA06102127
:10046000002A02DA62680A4362602A78920702D59B
:100470002268024322602A88D20502D5E26802433C
:10048000E260287802064020002A02DAE26802438D
:10049000E2602A78520702D56268024362602A78D5
:1004A000D3070122002B05D0236803432360184B98
:1004B000D00318602878400602D5A0680843A060E1
:1004C0002878800603D5A06880210843A06028888A
:1004D00081051048E16801D5014300E08143E160F6
:1004E0002888410502200029E16901DA014300E082
:1004F0008143E16128880005E06901D5104301E0EE
:1005000040084000E06130BD00B00340008004407E
:1005100000E100E00001000082680C2389079A4393
:10052000090F11438160704710B50B49C878002846
:1005300010D108728870084AC87101462E324C00EA
:10054000491C09061053090EF9D00449095C0448F6
:10055000FFF744FF10BD000020F0FF1F6B270000D5
:1005600000B00340F8B51A4D0024A8792E46353660
:100570002746FF2816D0288A00F02EFB082810D323
:10058000A879052800D3AF7101F04EF8A97970540D
:100590006978884211D100F049FB2882A879401C73
:1005A000A871F8BD68783055641CE4B2052CFAD304
:1005B000AF7100F03BFB2882F8BD641CE4B2052C4F
:1005C000E7D300F033FB288230786870E6E700005C
:1005D00020F0FF1F10B500F00BF801F089F901F0D1
:1005E000E5F900F007FE00F095FE00F037F810BDC9
:1005F00070B51648164E4089164C174D332811D247
:10060000688AA04202D100F011FB688280B200F03B
:10061000E3FAFA2801D300207070AC82EC822C83BC
:100620006C8370BD3428FCD3688BA04202D100F0EB
:10063000FDFA688380B200F0CFFAFA2801D30420D3
:1006400070706C82AC82EC822C8370BD84F0FF1FD2
:1006500076F0FF1FF1FF000020F0FF1F0248034962
:10066000007948737047000084F0FF1F20F0FF1FDF
:1006700010B50446083000F01DFF606800F01CFC57
:100680000F480178FB221140017001788906890E1C
:10069000803101704178EF221140417001790907E2
:1006A000890F0229FAD10179C906FCD44178C9061B
:1006B000C90E4170017980221143017110BD000003
:1006C0000040064010B50446083000F0F3FE6068B4
:1006D00000F0F2FB09480178FB221140017001791A
:1006E000C906FCD401794906FCD54178C906C90E72
:1006F0004170017980221143017110BD0040064014
:1007000010B50446083000F0D5FE606800F0D4FB58
:1007100009480178FB22114001700179C906FCD417
:1007200001794906FCD54178C906C90E41700179A5
:1007300080221143017110BD0040064010B50368CE
:100740008907C90E5207E024520F23401143194371
:10075000016010BDF7B504462F48304D2027844274
:100760000FD02F4EB44206D02E48844217D07421A9
:100770002DA001F099FFB44211D1686902264021F1
:1007800010E06869022638436861002020602F4825
:10079000A0600198022807D0032808D017E06869F4
:1007A000062680210843EFE7206838430EE01D4805
:1007B000844203D092211CA001F076FF606D0521D8
:1007C00008436065224860662068B84320607D2148
:1007D0000298C900012804D0022810D10020242347
:1007E00017E00020282308E0C2001219D360642516
:1007F00045436D181561401CC0B2B042F4D3FEBD34
:10080000C2001219D360642545436D181561401C60
:10081000C0B2B042F4D3FEBD00800340008004406B
:100820000090034000A003402E2E5C2E2E5C2E2E46
:100830005C2E2E5C7372635C647269766572735CA5
:1008400066746D5C66746D2E630000001F4E0000C0
:100850003333330010B50446472803D90C490DA0A3
:1008600001F022FF0120202C02D2A040124905E015
:10087000402C05D2203C1049A0404031886010BD7A
:10088000482CFCD2403C0C49A0408031F6E70000E7
:10089000830200002E2E5C2E2E5C2E2E5C2E2E5CF3
:1008A0007372635C647269766572735C6770696F9A
:1008B0005C6770696F2E630000F00F4070B50D46E5
:1008C0000446472804D9FF21463164A001F0ECFE1C
:1008D00001236B4A202C2DD201206A49A040002D13
:1008E0000FD0012D13D0022D1AD0032D21D14D6927
:1008F00005434D618D6905438D6191688143916028
:1009000065E04B6903434B618B69034304E04B692A
:1009100083434B618B6983438B619168814307E01B
:100920004B6983434B618B6983438B6191680143BE
:10093000916070BD402C33D25248203C4030E4B22C
:10094000002D11D0012D16D0022D1ED0032DF0D177
:1009500045691946A1400D43456185690D4385618F
:10096000D0688843D06032E04169A34019434161B7
:100970008169194305E04169A34099434161816957
:1009800099438161D068984308E04169A340994345
:100990004161816999438161D0681843D06070BD1D
:1009A0003848403C8030E4B2002D1ED0012D23D0C9
:1009B000022D2BD0032DF2D145691946A1400D43DC
:1009C000456185690D438561106988431061202C5C
:1009D0003BD026DC0C2C2ED00D2C30D0182C31D056
:1009E000192CDCD15069082123E04169A340194347
:1009F00041618169194305E04169A340994341611F
:100A00008169994381611069984308E04169A34075
:100A1000994341618169994381611069184310616B
:100A200070BD212C14D0382C15D0392CF8D1506938
:100A30008021084301E050691843506170BD50693E
:100A40000221F6E750690421F3E750691021F0E72D
:100A500050692021EDE750694021EAE72E2E5C2EF7
:100A60002E5C2E2E5C2E2E5C7372635C6472697633
:100A70006572735C6770696F5C6770696F2E630085
:100A80000090044000F00F4010B50446472803D9F9
:100A90000C490DA001F008FE0120202C02D2A0403C
:100AA000124905E0402C05D2203C1049A0404031BD
:100AB000486010BD482CFCD2403C0C49A04080311D
:100AC000F6E700005B0200002E2E5C2E2E5C2E2E20
:100AD0005C2E2E5C7372635C647269766572735C03
:100AE0006770696F5C6770696F2E630000F00F407C
:100AF00010B50446084884420CD007484030844270
:100B000008D005488030844204D0FF21173103A06B
:100B100001F0CAFD206910BD00F00F402E2E5C2EA2
:100B20002E5C2E2E5C2E2E5C7372635C6472697672
:100B30006572735C6770696F5C6770696F2E6300C4
:100B400070B5012504461F2801D8084805E03F2C50
:100B50000AD804460548203C4030FFF7C9FFA540AD
:100B6000284000D0012070BD002070BD00F00F4073
:100B70000CB51249884202D110480F300CBD0F4904
:100B8000491C884201D100200CBD694688800C496F
:100B90008A8869460A8009888142684603D30188A9
:100BA0008088091A06E080880449F139091A6846E4
:100BB000008809186846018000880CBDF0FF00001D
:100BC0007AF0FF1F08B503488188684601800088D5
:100BD00008BD00007AF0FF1F0CB51249884202D10F
:100BE00010480F300CBD0F49491C884201D100202C
:100BF0000CBD694688800C494A8869460A80098884
:100C00008142684603D301888088091A06E08088FB
:100C10000449F139091A68460088091868460180B4
:100C200000880CBDF0FF00007AF0FF1F08B50348F4
:100C3000418868460180008808BD00007AF0FF1FE7
:100C400002480068002800D00047704708F0FF1FE6
:100C5000014908607047000008F0FF1F10B51948EF
:100C60000221C2780A43C270C178C90606D5C2788B
:100C700010210A43C270C17849061BD5027A0821A7
:100C80000A4202D0027A0A430272027A02210A421E
:100C900002D0027A0A43027281782022114209D0DE
:100CA00009490A78032A06D20A78521C0A70882158
:100CB00000F0AEF810BD044600F092F8204600F0B7
:100CC00069F810BD0060064079F0FF1FF8B50446D2
:100CD0002E480D462C4B41699C4202D10122120440
:100CE00001E00122520411434161A8786070A98893
:100CF000204600F069F8A87AA071287A0006400E14
:100D00004000E071A989204600F05AF829880020A7
:100D10000A078027002A00DA8020CE064022002E13
:100D200000DA1043890601D508210843617901439F
:100D30006171298800204E0600D580200E0600D55E
:100D40001043CA0501D520221043490501D50121D0
:100D5000084320722878002680070AD540269C4246
:100D600001D1082003E00A48844202D1092001F0A1
:100D70002DFA2888410701D502210E43C00700D073
:100D80003E43A670F8BD00000060064000800440AD
:100D90000070064010B58178BF221140817006496D
:100DA000884201D1082003E00449884202D1092089
:100DB00001F0ECF910BD0000006006400070064034
:100DC000C172090A8172704701704279D208D2005B
:100DD000427142798905890F0A43427170470000C8
:100DE00030B50246002193780846DF2423409370F3
:100DF0002023064C00E0491CD5781D4201D0A142B9
:100E0000F9D3A14200D1184330BD0000400D0300CA
:100E100030B500242246154B00E0641CC578ED096E
:100E200001D19C42F9D39C4202D31046012110E02B
:100E3000847810252C4384700171002100E0491C46
:100E4000C478A40701D49942F9D3994203D3104638
:100E50000221084330BDC37802210B43C370C07820
:100E6000C00701D004200243104630BD400D0300EE
:100E700000B5017802290AD0EF2203290ED00529F6
:100E800012D00C484178C906C90E417000BD017AE4
:100E9000302211430172FFF715FC00BD017A1140A9
:100EA0000172FFF72DFC00BD017A11400172FFF7BE
:100EB000DFFB00BD0040064030B5124C7D23051B12
:100EC0001149C7225B01A04206D009DC202814D0BA
:100ED000C01A0ED0984213D10878104018300EE096
:100EE0000A48281801D098420AD1087810402030CA
:100EF00005E008781040103001E0087810400870D4
:100F000030BD0000102700000040064090E8FFFFC1
:100F100006498870CA78C00552085200C00F0243C3
:100F2000CA7008794006FCD57047000000400640B2
:100F3000F8B5184D002468792E4630362746FF282C
:100F400016D0E889FFF748FE082810D368790528ED
:100F500000D36F7100F070FB697970542978884272
:100F600011D1FFF763FEE8816879401C6871F8BD14
:100F700028783055641CE4B2052CFAD36F71FFF762
:100F800055FEE881F8BD641CE4B2052CE7D3307847
:100F90002870E6E720F0FF1F70B50E4C0025E570C5
:100FA00000F04AFB207000F03FFB60700120FFF76B
:100FB000DBF9012805D1084841890848332901D2C5
:100FC000457070BD342901D2022100E00421417036
:100FD00070BD000020F0FF1F84F0FF1F76F0FF1FA0
:100FE0002030017F407F814201D1012070470020E5
:100FF000704710B500F076FE10BD7047704770471F
:101000000A00000010B504462034607F1E21401CF9
:10101000FFF7D6F8207F814201D1012010BD0020CA
:1010200010BD10B500233C2802D07D2800D0034617
:10103000002007E00C78491CE318FF2B00D9FF3B88
:10104000401CC0B29042F5D3D843C0B210BD70B5B9
:101050000D460346FFF7C4FF002810D11C4620347C
:10106000207F1E214000185C2870207F4000C0189F
:1010700040786870207F401CFFF7A2F8217770BD90
:1010800070B50E460546FFF7BDFF002810D12C466F
:101090002034617F307849006854617F707849005E
:1010A00049194870607F1E21401CFFF789F861775D
:1010B00070BD000070B50126254A002811D0547873
:1010C0000025012C0FD0234B022C12D0042C23D04E
:1010D00010460078401CC0B2062C21D0072C30D01E
:1010E00005E056702BE0552901D1022010E0557023
:1010F00025E01970EC290DD03C290BD02B2901D00B
:101100007D29F4D11448C178FB231940C170032014
:10111000507014E00420FBE7597016700620F7E7C2
:10112000107019541B780721EC2B02D03C2B03D0F4
:1011300005E0082802D002E0052800D15170002007
:1011400070BD1070195408205070012070BD00004F
:101150005EF0FF1FDAF0FF1F00A0064008B5094847
:10116000FFF73EFF00280CD169460648FFF76FFFE6
:10117000684601784078FFF79DFF0120024940044E
:10118000C86008BD92F0FF1F00F00F40F8B5104C8A
:10119000607803281AD10F480E4F007800260A3FC6
:1011A0000D4D2B2802D07D2803D00DE000F0B0FFBC
:1011B00001E000F097FFA6707978284600F086FFDE
:1011C0000121284600F0A6FE05206070F8BD000051
:1011D0005EF0FF1FDAF0FF1F00A006400349002069
:1011E000087748770249487070470000B2F0FF1F47
:1011F0005EF0FF1F024803498079C8727047000003
:1012000084F0FF1F20F0FF1FF8B53B483B4D80786E
:10121000FD26FB27AC1F012825D0A089FFF7A8FCDD
:101220000A2843D8374836490078095C36480078A0
:10123000814236D2401AC0B20090442836D9A189E2
:101240003248814202D1FFF7BDFCA081E07801283D
:101250004BD06878012108433040384008221043C1
:101260006870E17041E06878F72140084000304044
:10127000384008406870FF20E0702448A0810020BA
:101280002081F8BD0322114301E0890889004170E3
:101290001C48A1780078814201D01C49A181A0702E
:1012A000F8BD081AC0B2009044280AD86878F7211F
:1012B000400840003040384008406870FF20E0702F
:1012C000E6E7A1891148814202D1FFF77BFCA081AA
:1012D000E078002809D068780621400840000843DB
:1012E000F721084068700020E0700098AB2808489B
:1012F0004178CAD8C6E7000076F0FF1F68F0FF1FEC
:10130000782700005DF0FF1F5BF0FF1FF1FF00007A
:101310006AF0FF1F02480349007A08737047000013
:1013200084F0FF1F20F0FF1FF8B53B483B4D80784D
:10133000FD26FB27AC1F012825D06089FFF718FC8C
:101340000A2843D8374836490078095C364800787F
:10135000814236D2401AC0B20090442836D9618901
:101360003248814202D1FFF72DFC6081607801286C
:101370004BD028780621400840000843F721084058
:101380002870012040E02878F721400840003040D4
:10139000384008402870FF20607024486081002099
:1013A0002081F8BD0C22114301E0F32211400170AD
:1013B0001C4821780078814201D01C49618120704D
:1013C000F8BD081AC0B2009044280AD82878F7213E
:1013D000400840003040384008402870FF206070CE
:1013E000E6E761891148814202D1FFF7EBFB60819A
:1013F0006078002809D0287801210843304038401F
:10140000082108432870002060700098AB28084825
:101410000178CAD8C6E7000076F0FF1F68F0FF1F0A
:10142000732700005CF0FF1F5AF0FF1FF1FF000060
:101430006AF0FF1F38B50E4CE089FFF7CDFB7D2128
:10144000C900884208D3FFF7F1FBE081684600F04D
:1014500035FCFFF7EBFB2082208AFFF7BDFB00285D
:1014600005D0684600F02AFC0E20C043208238BD1B
:1014700062F0FF1F08B50620FFF706FB83216846D0
:10148000018000F01BFCC3216846018000F016FCBF
:10149000E3216846018000F011FC93216846018039
:1014A00000F00CFC4C21C9436846018000F006FCAA
:1014B00008BD000002780021930700D50221D30760
:1014C00001D004231943130701D520231943D30660
:1014D00001D510231943520701D580221143044A34
:1014E00011700078800602D51078C007FCD07047D4
:1014F0000050064010B5002000F014F802480068C3
:10150000002800D0804710BD10F0FF1F10B501204B
:1015100000F008F802484068002800D0804710BD5D
:1015200010F0FF1F010103480818C1680122114390
:10153000C160704700710340F8B50D461B494A6908
:10154000022632434A6129780127CA071849002A2E
:1015500002D00A683A430A602A78920702D40A68DD
:10156000B2430A60134A03019C18696821606978D4
:1015700089070AD5002801D0172000E0162000F0C6
:1015800031FEA0683043A06002E0162000F00EFE9D
:101590006878400703D5A06804210843A0606878F4
:1015A000C00702D0A0683843A060F8BD00800440A6
:1015B0000070034000710340014A800011507047E1
:1015C00010F0FF1F00B589B0142103A8FEF715FE27
:1015D00000200090019002906820FFF799FC059888
:1015E00040210843059003988901084303900D4961
:1015F00006980843069001210798090608430790BA
:1016000003A800F021F86946087A052108436946D5
:1016100008727D20800101906846FFF729FC09B01F
:1016200000BD00000030700010B50E20FFF788FAF2
:10163000012800D0002010BD10B51820FFF780FA57
:10164000012800D0002010BD10B502680E210469E9
:10165000D30400D50C21130501D504239943530568
:1016600001D508239943D30702D00123DB04194392
:10167000530702D501239B031943130702D5012306
:101680001B031943930702D50123DB031943930579
:1016900001D5202319434379D2055B075B0B0B432C
:1016A0000179520F0906194312050A43C36881687C
:1016B00002484260C1604361446210BD0080044042
:1016C00002480068002800D00047704718F0FF1F4C
:1016D0000D48C178C909C90106D00178090603D5AA
:1016E00001784906490E0BE0C1782022114209D049
:1016F0000178890606D5882141710178DF221140E1
:1017000001707047C078704700600740F8B5474FD8
:10171000474E0D460446B8420AD04648844203D09C
:10172000562145A000F0C0FF70690121C90402E004
:101730007069012189040843706128788026C007F8
:10174000002809D0207830432070BC4201D10A2003
:1017500000E00B2000F052FD287840070AD52078E1
:10176000202108432070BC4201D10A2000E00B2058
:1017700000F044FD2878010710200029217801DAC3
:10178000014301E0EF22114021702978CA060821A7
:10179000002A02DA22780A4322702A78920603D5B8
:1017A000227804231A4322702A7813060122002B80
:1017B00002DA2378134323702B88DB0502D5637884
:1017C000334363702B889B0502D5637803436370B2
:1017D0002B785E060223002E05DA26781E4326703B
:1017E0006678064366702888000502D56078104345
:1017F00060702888400502D56078084360702888AA
:10180000C00402D56078184360702878000704D5BA
:1018100020466A68A96800F021F82878800703D577
:101820002078402108432070F8BD00000060074088
:1018300000800440007007402E2E5C2E2E5C2E2E61
:101840005C2E2E5C7372635C647269766572735C85
:101850007370695C7370692E6300000070B50B468D
:10186000044611461846FEF7ABFC002100224D1C31
:101870000346EB401E46531C9E4205D9DAB2072AA6
:10188000F9D9E9B20829F1D9082A00D30722082991
:1018900000D908215007400E0907090F0843A0701E
:1018A00070BD000070B50D4606494018040B022CAF
:1018B00004D3FF21393104A000F0F6FE0B49A0004B
:1018C0000D5070BD00A0F8BF2E2E5C2E2E5C2E2E6B
:1018D0005C2E2E5C7372635C647269766572735CF5
:1018E0007370695C7370692E6300000018F0FF1F4D
:1018F00070B52B482B4D00882B4C02280ED2A08BA4
:10190000A84203D1FFF792F9A08305E0FFF764F93D
:10191000232801D300206072E58310E0811F0A298B
:1019200010D2E08BA84203D1FFF780F9E08305E0F5
:10193000FFF752F9232801D301206072A583258483
:10194000658470BD014616390A290FD2208CA84241
:1019500003D1FFF76BF9208405E0FFF73DF9232859
:1019600001D302206072E583A583E9E7252812D917
:10197000302810D9608CA84203D1FFF757F9608452
:1019800005E0FFF729F9232801D30320607225849D
:10199000E583A58370BDA5832584E583D0E700009A
:1019A00084F0FF1FF1FF000020F0FF1F70B52A48F0
:1019B0002A4D40882A4C02280FD2A08CA84203D17D
:1019C000FFF734F9A08405E0FFF706F9232801D3D7
:1019D000002060722585E58411E0811F0A2910D25C
:1019E000E08CA84203D1FFF721F9E08405E0FFF77E
:1019F000F3F8232801D30120A072258513E0658523
:101A000070BD014616390A290FD2208DA84203D194
:101A1000FFF70CF9208505E0FFF7DEF8232801D356
:101A20000220A072E584A584E9E7252812D9302890
:101A300010D9608DA84203D1FFF7F8F8608505E062
:101A4000FFF7CAF8232801D30320A0722585E58477
:101A5000A58470BDA584BDE784F0FF1FF1FF0000E1
:101A600020F0FF1F10B500F069FB10BD1CB500226F
:101A70000092694601920888242188434121084345
:101A80006946088008204880032048710A71CA719D
:101A90008A710348FEF7BCFC0248FEF799FC1CBDA6
:101AA00000B00340D902000010B501211820FEF754
:101AB00005FF01210E20FEF701FF00210E20FEF799
:101AC000FDFE0E20FEF7E0FF00210E20FEF7F6FEE1
:101AD0000E20FEF7D9FF00210E20FEF7EFFE0E20AC
:101AE000FEF7D2FF00210E20FEF7E8FE0E20FEF7E3
:101AF000CBFF00210620FEF7E1FE0620FEF7C4FF23
:101B000010BD00001FB500210091019102916A46AD
:101B1000039110885822904303221043094A9043AE
:101B20006A4610801F205080518155209080D180BE
:101B3000118191810448FFF78BF869460348FFF74C
:101B4000C5F81FBDA40700005D0C00000060064042
:101B500010B500210A20FEF7B1FE0A20FEF794FF1F
:101B600000210B20FEF7AAFE0B20FEF773FEFFF705
:101B700029FDFFF799FF00F00DF800F07DF8FFF761
:101B800075FFFFF7BFFF00F05DF800F043F800F0CD
:101B90000DF910BDF0B57D2087B0C00004906846F7
:101BA000007BFD27420852003A4068460273427BA0
:101BB00002252A430420024301231A43684612499E
:101BC00042730291007901AE4108490039406846EC
:101BD00001714279FB202A4302401A436846427150
:101BE00003AC31460020FFF7A7FC21460120FFF798
:101BF000A3FC06490120FFF7DFFC05490020FFF7A1
:101C0000DBFC07B0F0BD0000C05D0000FB0F000072
:101C1000F30F000010B5094C012202212046FEF707
:101C200099FD07490020216149006060A1600722F9
:101C300001212046FEF782FD10BD00000080034018
:101C4000B80B00003EB508480190084802906F208C
:101C5000084C009006492046FFF724FE69462046BE
:101C6000FFF754FD3EBD000040420F0000366E01FC
:101C7000D1160000006007403EB5012000900B48DF
:101C800001904B2000020A4C02906946204600F069
:101C9000C7F90221204600F03DF901200549000363
:101CA0000860054800F018FA3EBD000000366E01DD
:101CB00000A0064000E100E0CD1D00000749202300
:101CC000CA781A42FCD002784A710088044A000A95
:101CD00010710878184308707047000000600740D2
:101CE00062F0FF1F10B50D484188491C41804388B0
:101CF0000B4A0021934200D3418003885B1C038080
:101D00000388FF24F534A34207D3018083885B1C3A
:101D100083808388934200D3818010BD7AF0FF1FB7
:101D2000FFFE000010B50A4CA08DFEF755FF7D2187
:101D3000C900884204D3FEF779FFA085FEF7F4FBC3
:101D40002079002803D0FEF745FC0020207110BD4B
:101D500020F0FF1F10B5084C2088FEF73DFF7D21C5
:101D6000C900884206D3FEF761FF208001200349A5
:101D70000004C86010BD000074F0FF1F00F00F40A9
:101D800010B5FFF7D5F8FEF7EDFB10BD10B5FFF766
:101D9000E5F9FFF7FBF910BD10B5FFF7C5FAFFF73E
:101DA00033FAFFF747FB10BD7047000002480121DE
:101DB00041808180704700007AF0FF1F024901488E
:101DC0000968084700A0064000F0FF1F38B51E480C
:101DD000017989061CD50521044600F03BF800284E
:101DE00015D00121204600F035F80028204605D006
:101DF00000F0E4F869460870002004E000F0DEF826
:101E000069460870012048701048FFF739F938BD5D
:101E100001790906FBD50E498A78521C8A700B4A53
:101E20008C783E321378A34208D80121044600F092
:101E30001BF8E07804210843E07038BD8978511818
:101E4000497800F043F938BD00A0064092F0FF1F2A
:101E50005EF0FF1F00B50A4600F0DCF8012191405A
:101E60000140C8B200BD000070B504461D480D46D3
:101E700084420AD01C48844207D01C48844204D0C3
:101E8000FF2105311AA000F00FFC002D12D0012D0A
:101E900014D0022D17D0032D18D0042D1AD0052DE3
:101EA0001BD0FD20062D01D0072D02D1A1790140C4
:101EB000A17170BDE0784006400E02E0E078BF21DD
:101EC00006E0E07070BDE078DF2101E0E078EF210E
:101ED0000840F6E7A079F72101E0A079FB2108404E
:101EE000A07170BD00A0064000B0064000C00640D2
:101EF0002E2E5C2E2E5C2E2E5C2E2E5C7372635C5E
:101F0000647269766572735C756172745C75617216
:101F1000742E630070B504461C480D46844209D0F7
:101F20001B48844206D01B48844203D0CE211AA00D
:101F300000F0BAFB002D12D0012D13D0022D16D0C7
:101F4000032D17D0042D18D0052D19D00220062DF1
:101F500001D0072D02D1A1790143A17170BDE078B4
:101F6000802101E0E07840210843E07070BDE07816
:101F70002021F9E7E0781021F6E7A079082101E0B7
:101F8000A07904210843A07170BD000000A00640A4
:101F900000B0064000C006402E2E5C2E2E5C2E2E79
:101FA0005C2E2E5C7372635C647269766572735C1E
:101FB000756172745C756172742E630010B50446AD
:101FC0000848844209D00848844206D00748844221
:101FD00003D0812106A000F067FB20798006FCD5A4
:101FE000E07910BD00A0064000B0064000C00640E9
:101FF0002E2E5C2E2E5C2E2E5C2E2E5C7372635C5D
:10200000647269766572735C756172745C75617215
:10201000742E630001464079097900020843704735
:10202000F8B504461C481D4D4F688E68844210D098
:102030001B48844206D01B48844228D04E211AA057
:1020400000F032FB1648844221D16869012149051C
:1020500002E068690121090508436861E078F3211D
:102060000840E0700020A07038097108401831461F
:10207000FEF7A6F82178C20449094901D20E0A43A5
:1020800022706070E0780C210843E070F8BD686948
:1020900001218905E0E7000000A00640008004401F
:1020A00000B0064000C006402E2E5C2E2E5C2E2E68
:1020B0005C2E2E5C7372635C647269766572735C0D
:1020C000756172745C756172742E63000279120618
:1020D000FCD5C171704700000149086070470000DD
:1020E00000F0FF1F10B5094C09202070002060701F
:1020F000A070E07020716071A071E0712072082200
:10210000611C7D20FEF78DFF607210BDD0F0FF1FB7
:1021100010B5094C0920207000206070A070E0709C
:1021200020716071A071E07120720822611C2B2067
:10213000FEF777FF607210BDD0F0FF1F30B5084882
:10214000047843788288C1886406064D640E458011
:10215000054D458043708280C180047030BD000011
:1021600000200540C5200000D92800000FB410B59C
:1021700003A9044B044A029800F05CF810BC08BCA8
:1021800004B01847CF26000080F0FF1F002809DBAD
:10219000C106C90E0120884003490860BFF34F8F74
:1021A000BFF36F8F7047000080E100E0002809DB7B
:1021B000C106C90E0120884003490860BFF34F8F54
:1021C000BFF36F8F7047000080E100E0002805DB5F
:1021D000C106C90E0120884001490860704700000F
:1021E00000E100E0002805DBC106C90E012088409F
:1021F000014908607047000000E100E0002805DBAD
:10220000C106C90E012088400149086070470000DE
:1022100000E100E002E008C8121F08C1002AFAD15C
:1022200070477047002001E001C1121F002AFBD156
:1022300070470000FFB591B00F460546002606E046
:1022400025280AD0149A139990476D1C761C28787B
:102250000028F5D1304615B0F0BD002400940121CE
:10226000F34A029400E004436D1C2B780846203B9F
:1022700098401042F7D128782A280ED002222878D8
:1022800001463039092915D800990A2359433039B4
:10229000401814436D1C0090F1E701CF0090002816
:1022A00005DA0120400304430098404200900220D8
:1022B00004436D1C28782E2815D104200443687827
:1022C0006D1C2A280AD101CF6D1C02900BE00299E7
:1022D0000A225143303940186D1C0290287801467B
:1022E00030390929F3D928786C2810D006DC4C281D
:1022F0001AD068280ED06A2817D104E0742813D0A9
:102300007A2812D110E00120400504430CE001219D
:10231000090501E0032109050C436978814203D1D5
:102320000120000524186D1C6D1C28786E281ED015
:102330000CDC632831D004DC00288BD0582811D164
:10234000B2E064287BD069280CD178E073282DD0C6
:1023500004DC6F2870D0702804D1A7E075286CD0F9
:1023600078286BD0149A13999047761C62E060022B
:10237000400F022807D003280AD0042838680AD062
:1023800006603F1D56E03868F11706604160F8E7C7
:1023900038680680F5E70670F3E738786946087410
:1023A0000020487404A80390012003E038680390DB
:1023B0000020C0433F1D61070FD5002101E00199B6
:1023C000491C029A0191914213DA8142F7DB019A8A
:1023D0000399895C0029F2D10BE0002101E0019909
:1023E000491C01918142FADB019A0399895C002919
:1023F000F5D101990098139A401A00902146149B38
:1024000000F03CF901998019461807E003980399F8
:102410000078491C0391149A139990470198401E23
:102420000190401CF2D12146149B139A009800F0B1
:1024300015F986196D1C0AE741E033E034E00A2003
:102440000021049005916002410F022905D001CFBF
:10245000C2179446032905D007E0FF1DFF08FF00BF
:1024600003CF06E000B2C2179446042902D140B25D
:10247000C1178C4600226146944506DA0A460021BF
:10248000404291418C462D2102E0210504D52B21AB
:102490006A461176012103E0E10701D02021F7E728
:1024A000019155E00A200BE0102009E01020049073
:1024B00000210420044308200591029003E0082035
:1024C0000021059104906002410F022905D001CF3F
:1024D00000229446032906D006E0FF1DFF08FF00F6
:1024E00003CF8C4603E080B2042900D1C0B20021A2
:1024F000019121072CD529780391702906D0049ADF
:102500001021059B4A401A4305D00EE040216A463F
:102510001176012108E06146014306D030216A4668
:1025200011760399517602210191049A0821059BA5
:102530004A401A430CD16146014301D1610707D5D6
:1025400030216A461176012101910299491E0291BA
:102550002978582904D037A103910FA90F910DE0D4
:1025600039A1F9E76146059B049AFDF751FE039BEB
:102570008C469B5C0F9A521E0F921370614601436A
:10258000F0D10F9807A9081A20300390600704D5EE
:10259000012000048443029801E001200290039985
:1025A000884201DD401A00E00020411802900198A5
:1025B00009180098401A0090E00306D42146149BA5
:1025C000139A009800F05AF886190020049008E049
:1025D00006A9085C149A139990470498401C761C2D
:1025E000049001998842F3DBE0030CD52146149B4B
:1025F000139A009800F042F8861904E0149A3020EB
:1026000013999047761C0299481E02900029F5DC28
:1026100008E00F980F990078491C0F91149A1399AC
:102620009047761C0399481E03900029F1DCFAE6D6
:102630000928010030313233343536373839616298
:10264000636465660000000030313233343536375C
:10265000383941424344454600000000F8B504467D
:1026600000251E461746880404D405E0394620207C
:10267000B0476D1C641EF9D52846F8BDFFB5044669
:10268000002581B01E46C80301D5302700E0202771
:10269000880404D505E038460399B0476D1C641ED4
:1026A000F9D5284605B0F0BD0A4601460548FFF7B2
:1026B0005DFD05480146491EFDD10146491EFDD17B
:1026C000F8E70000482700009E860100704710B51B
:1026D000C0B200F031F8012010BD0000154C606957
:1026E0000121090408436061606949000843606191
:1026F00060694D0028436061FFF72AFAFEF74CFC41
:10270000FDF77DFEFEF7B6FEFEF768FDFDF776FEEF
:10271000FFF736FBFFF706FBFFF71CFBFEF76EFC2F
:10272000FFF73AFBFFF732FBFEF769FCFFF73CFBD4
:10273000E560EDE700F00F4010B501460148FFF7F6
:10274000C5FC10BD00A00640417373657274696FCB
:102750006E206661696C656420696E202573206156
:1027600074206C696E652025640A000301000A0864
:10277000090B00EBBEA34A15EBBEA34A15000000EF
:10278000A027000000F0FF1F8400000014220000BA
:102790002428000084F0FF1F6401000024220000B0
:1027A0000000000000000000000000000000000029
:1027B0000000000000000000000000000000000019
:1027C0000000000000FFFF00000000000000F0FF1C
:1027D000F0FFF1FFF1FFF1FFF1FFF1FFF1FFF1FF7A
:1027E000F1FFF1FFF1FFF1FFF1FFF1FFF0FF00005A
:1027F00000000000000000000000000000000000D9
:10280000000005FF05FF000000000000F1FFF1FFE0
:10281000F0FFF1FFF0FF01020000000000000000E7
:0428200000000000B4
:040000050000018175
:00000001FF
